:0E0000000C9441000C9471000C9400000C94C0
:10000E0000000C9400000C9400000C9400000C9462
:10001E0000000C9482000C9472000C9400000C945E
:10002E0000000C9400000C9400000C9483000C94BF
:10003E0000000C9400000C9400000C9400000C9432
:10004E0000000C9400001027E80364000A00010071
:10005E0000100001100001007F0A000000000000E7
:10006E002564000080C008000400660002006001E4
:10007E0072000000F894EE27ECBBF1E0FBBFEBBF83
:10008E00E5BFF8E1F1BDE1BD8DE0A2E0BB27ED9348
:10009E008A95E9F780E094E0A0E6ED930197E9F701
:1000AE00E4E7F0E085919591009761F0A591B59107
:1000BE0005901590BF01F00105900D920197E1F7A3
:1000CE00FB01F0CFEFE5EDBFE4E0EEBFC0E6D1E01F
:1000DE000C9497001895EA93EFB7EA93E2EBE2BF20
:1000EE005A94552039F4E5E05E2EDA9B02C0DA9878
:1000FE0001C0DA9A11C01895EA93EFB7EA931A93F2
:10010E000A9304B115B1E1E0BE2E8394EFE7E81532
:10011E0009F4882409911991E991EFBFE991189595
:10012E00E0E0EBBBEABBE8BBE7BBE5BBE4BBE2BB95
:10013E00E1BBE5E0E3BFE2EBE2BFE0E0ECBFEFBD29
:10014E00E1E0EEBDE0E0EDBDECBDE2BDE5BDE4BD40
:10015E00E3BDEBB7E064EBBFE2E0E5BFE0E0E4BF98
:10016E00E0E4EABFE5E0E9BFE0E0EBB9E8E1EAB9D7
:10017E00E6E8E0BDE0E0E0BDE7E6E9B9E0E8E8B9D1
:10018E00E0E0E0BFE0E4E7B9EFEAE6B9E0B7EF712F
:10019E00E0BFE0B7E062E0BFE0E0EDB9E6BFE0E16E
:1001AE00EA9355D07894E1E0EB1579F4EEE6F0E0C1
:1001BE00FA93EA93E82DFF27662777270E943C03E0
:1001CE0084E00E94A9022696BB24EDCFFFCFE881E2
:1001DE00E07111F0949A01C09498E881E07211F0E8
:1001EE00959A01C09598E881E07411F0969A01C035
:1001FE009698E881E07811F0979A01C097988BE075
:10020E008A95F1F7C29A8BE18A95F1F7C2988BE144
:10021E008A95F1F70C946601E881EA93D8DFE881BC
:10022E00E295E883E881EA93D2DF88EC90E00197CB
:10023E00F1F745C0E2E00E94E502ECE0EA93ECDF64
:10024E00E1E00E94E502E0E0DE2EAE2E08958C9AEB
:10025E008D9A8E9A8F9ABA9AB89AB99AC298C0986D
:10026E00C198C880E881E058E0936201E881E054CB
:10027E00E0936301E4E1F0E0FA93EA930E94200335
:10028E000E94EE020E94EE020E94EE02E0E2EA936B
:10029E009EDF80E991E00197F1F7E8E2EA93BCDF97
:1002AE00E4E0EA93B9DFE5E8EA93B6DFE6E0EA9345
:1002BE00B3DFC0DF04C05D9BFECFE881ECB92196B1
:1002CE000895EA81EA93F7DFA881B981ED91FD9156
:1002DE003196FE93EE932396089526970E9441033E
:1002EE0010E0AC85BD85E0E0F0E0ED93FC93EA898B
:1002FE00FB893196EA8BFB8B3197E4912E2FE03000
:10030E0011F40C94A102E12FE03039F4253211F4EE
:10031E0011E002C00E94F7020CC1E130A9F42532AF
:10032E0019F40E94F70204C112E040E000E02D3201
:10033E0011F401E0FEC02B3211F44BE2FAC0203270
:10034E0011F440E2F6C002C0E23039F450E013E09E
:10035E00203311F40068EDC004C0E33011F00C94AA
:10036E00A002203310F02A3308F007C0AAE05A9FEB
:10037E00502DE22FE0535E0FDCC0E22FE33649F43E
:10038E000E940003E889F989A481AA930E940603BA
:10039E00CFC0E33741F40E9400030E940E030E9477
:1003AE00D0021E2F0AC0E03761F40E9400030E94A3
:1003BE000E030E94DA021E2F086002600F7730E0F3
:1003CE0035C0E43611F0E93611F4046002C0E537A9
:1003DE0031F4E4E5F0E0EE83FF8315E00DC0E8357F
:1003EE0011F4086004C0E83711F00C949F02EEE59A
:1003FE00F0E0EE83FF8314E002FF14C00E940003BE
:10040E000E941803AB85AA233AF4EA85FB850E9465
:10041E003003EA87FB874DE2403011F01F5F01C0C9
:10042E000B7F04C00E9400030E94180300FD11C040
:10043E00151778F407FF08C002FF04C00B7F242FA6
:10044E00115001C020E301C020E20E94F70251507A
:10045E00EFCF312F01FF17C03030A1F003FF06C0E0
:10046E00EE81FF812591EE83FF8305C0AE81BF81B2
:10047E002D91AE83BF830E94F702503009F0515088
:10048E003150EACF4BC020E3EE81FF810E9438034A
:10049E00E887F987EE81FF813296EE83FF83E88548
:1004AE00F985AA85BB85AE17BF0750F02F5FA885CB
:1004BE00B985EA85FB85EA1BFB0BEA87FB87EFCF45
:1004CE002A3328F003FF02C0295F01C0295D04FD15
:1004DE001AC0213320F4A885B985119709F409C0F3
:1004EE00531710F000FF01C013C020E207FF0BC02E
:1004FE0020E3006102FF07C00B7F4A930E940603B0
:10050E00503009F051500E94F702503009F051500E
:10051E003150A885B985129708F0B5CF00FF08C0F5
:10052E00503031F05150E0E2EA930E940603F8CFCA
:10053E0010E0DDCEAC85BD850E9434030E944803D9
:10054E0064960895FF92F82E26971A930A93DE0169
:10055E0014960E942C038D01E0E0EC83ED83EE8374
:10056E00EF83DE0118960E942C030E943403FA9347
:10057E00EA931A930A93E8E6F1E0FA93EA93FE01FE
:10058E003896FA93EA93A9DE198108812896FF908E
:10059E000895A991B991EE27FF276D91662311F069
:1005AE003196FBCF0895AA27BB27E991F9910590C3
:1005BE00002011F01196FBCFFD010895EA930E94E1
:1005CE001301E3E0F0E0FA93EA930C942003E0E3E6
:1005DE00EA930E94EE0080E991E00197F1F7089509
:1005EE002A93ED85FE85FA93EA93E989FA890995AE
:1005FE000895E889F9893497E88BF98B0895ED858C
:10060E00FE85FA93EA93E989FA8909950895A889EE
:10061E00B98914960E943403EE83FF83FA93EA930A
:10062E000895A889B98914960E943403EA87FB8736
:10063E000895E991F991309639F080EA9FE001979B
:10064E00F1F7A8953197C9F708950024AF0DB01DA5
:10065E000895F195E195F0400895ED91FC91119773
:10066E0008950590F491E02D08957A936A93FA9384
:10067E00EA9308955A934A933A932A931A930A93B4
:10068E0008955D814C813B812A81198108810895ED
:00000001FF
