:080000000C943C000C9400007C
:100008000C9400000C9400000C9400000C94000068
:100018000C9400000C9400000C9400000C94000058
:100028000C9400000C9400000C9400000C94000048
:100038000C9400000C9400000C9400000C94000038
:100048000C9400000C9400000C9400001027E803A6
:1000580064000A0001000010000110000100542093
:100068003D200043000080C0020069016E000000CE
:10007800F894EE27ECBBF1E0FBBFEBBFE5BF8DE0EA
:10008800A2E0BB27ED938A95E9F780E094E0A0E62B
:10009800ED930197E9F7E0E7F0E0859195910097F6
:1000A80061F0A591B59105901590BF01F0010590FB
:1000B8000D920197E1F7FB01F0CFEFE5EDBFE4E02A
:1000C800EEBFC0E6D1E00C9420011A930A930A2FE0
:1000D800EAD2A0EA1BD3A02F19D3E5D2A1EA16D3FE
:1000E800A0E0FAD21E2FEED2E12F50C0CCD11A2FA9
:1000F8002C813D81D8D2A0EA09D3A22F07D3A12F02
:1001080005D3E0D2C7D126960895A79AAF9880ED77
:1001180097E00197F1F7AF9A80EF90E00197F1F738
:10012800A7989F99FECF9F9BFECF08951A930A9395
:100138000A2FA79A10E0183098F4AF9885E38A95AB
:10014800F1F700FF02C0AF9A01C0AF9885ED8A951C
:10015800F1F7AF9A85E08A95F1F706951F5FEBCF27
:1001680015C01A930A9310E0183078F4A79AAF983C
:100178008BE08A95F1F7AF9AA7989F990068069542
:1001880080EF8A95F1F71F5FEFCFE02F0991199162
:10019800089579D1BADFACECC9DFA4E4C7DFB5DFD5
:1001A800ACECC4DFAEEBC2DFDCDF0E2F1127D9DFEA
:1001B8002E2F3327F22FE0E0E02BF12B662777274D
:1001C800F2D1A0E0B0E088EC90E41AD2B3D116C125
:1001D800BA93AA93229755D13FD169D1F0968F014E
:1001E8003BD178D1DF01E4E6F0E061D1F0969F01E0
:1001F800A885B985E4E6F0E06DD1DF01EAE0F0E03A
:1002080056D1F096AF01A885B985EAE0F0E062D151
:10021800F096EE83FF83A6E6B0E0E4D0A22FCFD01D
:10022800A42FCDD0AEE2CBD0AE81C9D0ABE6B0E042
:10023800D9D02ED12A9608952697E0E0EABBEBBBE9
:10024800E7BBE8BBE4BBE5BBE1BBE2BBE3BFE2BFA6
:10025800ECBFEFBDEEBDEDBDECBDE7BDE6BDEBBD52
:10026800EABDE9BDE8BDE2BDE5BDE4BDE3BDE9BF6A
:10027800E5BFE4BFEAB9E0E8E8B9E0E0E0BFE6B925
:10028800EDB9E6BF0BD264D2A0E1BBD082DF8F010B
:10029800E0E0F0E0FA93EA93A02FE3D09F01E1E0D9
:1002A800F0E0FA93EA93A22FDCD0AF01E2E0F0E0AD
:1002B800FA93EA93A42FD5D0EC83FD83E3E0F0E032
:1002C800FA93EA93AE81CDD0EA83FB83E4E0F0E0D1
:1002D800FA93EA93AC810ADFA8EEB3E02FD2A0E04C
:1002E800F4DE0E2F1127A1E0F0DE2E2F3327A2E037
:1002F800ECDE4E2F5527A3E0E8DEF0E0EC83FD832B
:10030800A4E0E3DEF0E0EA83FB83F901E00FF11FEC
:10031800E40FF51FAC81BD81EA0FFB1FAA81BB81E9
:10032800AE0FBF1FE5E0F0E0C2D0E883F983A881F3
:10033800B9814EDFE0E0EA93A0E025D0A7CFFFCF58
:100348001A931A2FE2B3EF70AE2FE12FE07FEA2B5A
:10035800E2BB8BE18A95F1F7C29A8BE18A95F1F7B6
:10036800C2988BE18A95F1F775C0AA93A881E8DF56
:10037800E881E295E883A881E3DF88EC90E00197C3
:10038800F1F7219608951A930A931A2F0A81E12FFB
:10039800F0E0E759FE4FE081E00FAE2FE6DF502E88
:1003A800412E1981088123960895A2E05FD0ACE020
:1003B800DCDFA1E05BD0E0E04E2E5E2E08951A93BC
:1003C8001A2F1A3011F0571438F0E0E0EA934394EA
:1003D800A42DD9DF1A30F1F15394C09AA12FC5DFAB
:1003E800C09838C050D09D01F9012F5F3F4FE4916C
:1003F8001E2FE03019F0A12FE2DFF6CF4BD0249664
:1004080008951A931A2FE1B3E06FE1BBBA9AB89A2C
:10041800B99AC298C098C198712EE12FE058E0931C
:100428006B01E12FE054E0936C01A4E1B0E086D1C8
:1004380021D020D01FD0A0E283DF80E991E001978E
:10044800F1F7A8E292DFA4E090DFA5E88EDFA6E04E
:100458008CDFABDF19910895A885B985E8EEF3E044
:10046800089544DEA8EEB3E069D193CE7EDFA3E021
:10047800B0E064C1A0E364DF80E991E00197F1F79F
:1004880008955A934A933A932A931A930A9308958C
:100498005D814C813B812A81198108810895F095FD
:1004A80060957095E195FF4F6F4F7F4F0895002439
:1004B800112490E1AA0FBB1F001C111C0E1A1F0A61
:1004C80018F40E0E1F1E01C0A1609A9599F7FD0140
:1004D800D0010895ECDFFD010895552342F450380A
:1004E80011F4E0FF04C03196691F791F6BF050E8E2
:1004F800572711F45F9373C05F3F31F0660F000C0C
:1005080057956795752F08955F9300200AF072C07C
:100518006BC050E8192E1522880F991F9527550F83
:10052800879550E8072E0522660F771F7527550F08
:1005380067950895689401C0E8945F93F2DF703876
:1005480018F07F3F08F44BC056E1571BAAF45195A9
:1005580058300EF4593030F0EFEFFFEF6FEF7FE7D0
:1005680077F91AC077275523B9F0EE0FFF1F661FDA
:10057800771F5A95D1F710C07727583028F0EF2FFA
:10058800F62F672F5850F9CF552331F07695679598
:10059800F795E7955A95D1F700200AF480DF5F9127
:1005A8000895689401C0E894309760407040B1F0B5
:1005B800002426F0772312F4009471DF172E7EE1D1
:1005C800112032F07A95EE0FFF1F661F111CF9CF2C
:1005D800EF2FF62F612D5F938ADF5F910895EE2745
:1005E800FF27BF015F910895EFEFFFEF6FE77FEF00
:1005F8005F910895EFEFFFEF6FE77FE75F91089551
:100608005F9387DF703859F3903849F301240894D1
:10061800791F23F424F300203AF3ECCF0F921F93B1
:100628002F933F934F93112722279927689FA00163
:100638008F9F302D410D591F6B9F300D411D591F44
:100648008E9F27D0BF9F25D06A9F23D0BE9F1DD0E5
:10065800AF9F1BD0AE9F110D291F391F491F591F6E
:10066800E32FF42F652F522F4F913F912F911F9118
:100678000F9066232AF0550FEE1FFF1F661F02C05A
:1006880073954BF22ADF5F910895100D211D391FD4
:1006980002C0200D311D491F591F0895A898A99817
:1006A800A09AA19815C0A198A098EE270000999B40
:1006B8000895989B089504D0A19A02D0A09AE1E0E9
:1006C8006AE007C0A19AA09A03D0A098F9DFA19880
:1006D80064E16A95F1F7089578E0A098F1DF989BB6
:1006E800FECFEEDF889499990894A09AF1DFEE1F67
:1006F8007A9599F7AA2311F4A19801C0A19AE0DF8D
:10070800A098E6DFA09ADCDFA198DACF78E0AA0FFC
:1007180010F4A19801C0A19ADBDFA098D1DF989BC3
:10072800FECFCEDFA09A7A9591F7A198C9DFA0985D
:10073800CFDFE1E09999EE27A09AC2CF109639F061
:10074800A89580EA9FE00197F1F71197C9F70895F6
:10075800EE27AF98A79A80E897E00197F1F7A79856
:100768008BE48A95F1F79F9B089580E391E00197C8
:10077800F1F79F9BE1E088E196E00197F1F7089592
:00000001FF
