:100000000C9438000C9400000C9400000C94000038
:100010000C9400000C9400000C9400000C94000060
:100020000C9400000C9400000C9400000C94000050
:100030000C9400000C9400000C9400000C94000040
:100040000C9400000C9400000C9400000C94000030
:100050000C9400001027E80364000A00010000105F
:1000600000011000010080C0020060016600000075
:10007000F894EE27ECBBF1E0FBBFEBBFE5BF8DE0F2
:10008000A2E0BB27ED938A95E9F780E094E0A0E633
:10009000ED930197E9F7E8E6F0E0859195910097F7
:1000A00061F0A591B59105901590BF01F001059003
:1000B0000D920197E1F7FB01F0CFEFE5EDBFE4E032
:1000C000EEBFC0E6D1E00C9465000AE010E020E04D
:1000D00030E0E0E0EABBEBBBE7BBE8BBE4BBE5BB81
:1000E000E1BBE2BBE3BFE2BFECBFEFBDEEBDEDBDE8
:1000F000ECBDE7BDE6BDEBBDEABDE9BDE8BDE2BDD7
:10010000E5BDE4BDE3BDE9BFE5BFE4BFEAB9E0E8B2
:10011000E8B9E0E0E0BFE6B9EDB9E6BFA0E1A8D0FC
:10012000D39AD49ADB9AAAE590D0A8E48ED0A5E41D
:100130008CD0AEE48AD0A7E488D0A0E286D0A7E431
:1001400084D0A2E782D0A1E680D0AEE67ED0A4E63D
:100150007CD0A0E27AD0A3E578D0ACE676D0A1E658
:1001600074D0ADE672D0AAE370D0A0E26ED0015098
:100170001040DC9902C0DB9801C0DB9ADC9B02C016
:10018000DC9801C0DC9AA4E6B0E0A8D000240016F8
:1001900001066CF30AE010E0E9E3E21BAE2F55D054
:1001A000AFE353D0E2E0EA93A1E033D02F5F3F4FBB
:1001B000EAE0F0E0E217F30739F420E030E0A0E3F2
:1001C00044D0A1E242D001C0D2CFFFCF1A931A2F60
:1001D000E2B3EF70AE2FE12FE07FEA2BE2BB8BE1C1
:1001E0008A95F1F7C29A8BE18A95F1F7C2988BE173
:1001F0008A95F1F766C0AA93A881E8DFE881E295C5
:10020000E883A881E3DF88EC90E00197F1F721967D
:1002100008951A930A931A2F0A81E12FF0E0E05A09
:10022000FE4FE081E00FAE2FE6DF502E412E198108
:10023000088123960895A2E046D0ACE0DCDFA1E07F
:1002400042D0E0E04E2E5E2E08951A931A2F1A30F7
:1002500011F0571438F0E0E0EA934394A42DD9DF6D
:100260001A3079F15394C09AA12FC5DFC09829C0E4
:100270001A931A2FE1B3E06FE1BBBA9AB89AB99A10
:10028000C298C098C198712EE12FE058E0936201A6
:10029000E12FE054E0936301A4E1B0E01FD017D058
:1002A00016D015D0A0E292DF80E991E00197F1F736
:1002B000A8E2A1DFA4E09FDFA5E89DDFA6E09BDF29
:1002C000BADF1991089597DFA3E0B0E007C0A0E37B
:1002D0007DDF80E991E00197F1F70895109639F0FC
:1002E000A89580EA9FE00197F1F71197C9F7089563
:00000001FF
