:080000000C947B000C94A80095
:100008000C94BB000C9400000C9400000C940000AD
:100018000C9400000C9400000C9400000C94000058
:100028000C9400000C9400000C9400000C94000048
:100038000C9400000C9400000C9400000C94000038
:100048000C9400000C9400000C9400001027E803A6
:1000580064000A0001000010000110000100000007
:1000680054696D653A202532643A253032643A2560
:100078003032640A00446174653A202532642F25C1
:100088003032642F25640053657420596561723AD3
:100098002025326400536574204D6F6E74683A20D1
:1000A8002530326400536574204461793A20253044
:1000B80032640053657420486F75723A20253032D7
:1000C8006400536574204D696E3A2025303264000F
:1000D800536574205365633A20253032640080C02C
:1000E80002000400660002007001E6000000F894B7
:1000F800EE27ECBBF1E0FBBFEBBFE5BF8DE0A2E074
:10010800BB27ED938A95E9F780E094E0A0E6ED93AC
:100118000197E9F7E8EEF0E085919591009761F095
:10012800A591B59105901590BF01F00105900D922C
:100138000197E1F7FB01F0CFEFE5EDBFE4E0EEBF9B
:10014800C0E6D1E00C941E01EA93EFB7EA9355207C
:1001580021F4E1E05E2E442406C0E5E04E1610F4DA
:10016800439401C05524E991EFBFE99118950A928B
:100178001A92FA926A937A938A939A93AA93BA9361
:10018800EA93FA93EFB7EA93E1E0E51509F044C082
:10019800E42DF0E0309739F4A394E3E6EA1508F487
:1001A800AA24ECD339C0E130A0E0FA0741F4B394B3
:1001B800ECE0EB1510F4E1E0BE2EE0D32DC0E23008
:1001C800A0E0FA0741F48394EFE1E81510F4E1E0C8
:1001D8008E2ED4D321C0E330A0E0FA0731F4739413
:1001E800E7E1E71508F4772413C0E430A0E0FA0744
:1001F80031F46394EBE3E61508F4662409C0E530AE
:10020800A0E0FA0749F49394EBE3E91508F499247C
:100218007A926A92A92D59D3E991EFBFF991E991A0
:10022800B991A9919991899179916991F9901990C8
:1002380009901895E0E0EABBEBBBE7BBE8BBE4BB81
:10024800E5BBE1BBE2BBE3BFE2BFECBFEFBDEEBD88
:10025800EDBDECBDE7BDE6BDEBBDEABDE9BDE8BD62
:10026800E2BDE5BDE4BDE3BDE9BFEBB7E06CEBBFC4
:10027800EAE0E5BFE0E0E4BFE0ECEABFE0E0EAB9CD
:10028800E0E8E8B9E0E0E0BFE6B9EDB9E6BFE1E0F3
:10029800EA93EA93A3E0FFD2A0E183D27894E1E164
:1002A800EA93E0E3EA93A0E010D3E8E0EA93EDE014
:1002B800EA93A8E120D35520B9F5E7E0F0E0FA93F6
:1002C800EA93E6E0F0E0FA93EA93A9E0B0E0F6D228
:1002D800E8E0F0E0FA93EA93EBE0F0E0FA93EA93CF
:1002E800AAE0B0E0FAD24ED3E8E6F0E0FA93EA9357
:1002F800E72D4DD3E62D4BD3E92D49D38CE0B8D16A
:1003080060961ED2A0E6B1E03DD23CD3EDE7F0E026
:10031800FA93EA93E82D3BD3EB2D39D33DD3B9D3E8
:100328008CE0A6D1609649C00BD2E42DF0E030975E
:1003380039F428D3EFE8F0E0FA93EA932DD339C0E3
:10034800E130A0E0FA0739F41DD3EDE9F0E0FA93C3
:10035800EA93EB2D2BC0E230A0E0FA0739F412D370
:10036800EDEAF0E0FA93EA93E82D20C0E330A0E04C
:10037800FA0739F407D3EBEBF0E0FA93EA93E72DA9
:1003880015C0E430A0E0FA0739F4FCD2EAECF0E05A
:10039800FA93EA93E62D0AC0E530A0E0FA0769F47B
:1003A800F1D2E8EDF0E0FA93EA93E92DFF2766270A
:1003B80077276FD384E05CD12896A0E6B1E0E2D13C
:1003C800A4EFB1E06BD377CFFFCF4DD39D015E8112
:1003D8001296ED91FC9111973097E9F0D901E5D289
:1003E8008F01309759F00230E0E01E0760F0F80105
:1003F80031978F01D9011496ED93FC93D901129688
:10040800D9D231975083D901ED91FC911197FF23EF
:100418000AF0D0D205C0D901EFEFFFEFED93FC93BE
:1004280029D327960895BA93AA9326971CD310E048
:10043800AC85BD85E0E0F0E0ED93FC93EA89FB89AB
:100448003196EA8BFB8B3197E4912E2FE03009F43B
:1004580008C1E12FE03031F4253211F411E001C078
:10046800AFD2FEC0E130A1F4253211F4A9D2F7C011
:1004780012E040E000E02D3211F401E0F1C02B322F
:1004880011F44BE2EDC0203211F440E2E9C002C0A1
:10049800E23039F450E013E0203311F40068E0C092
:1004A80003C0E33009F0DCC0203310F02A3308F031
:1004B80007C0AAE05A9F502DE22FE0535E0FD0C02C
:1004C800E22FE33639F483D2E889F989A481AA9323
:1004D80084D2C5C0E33729F47AD285D21FD21E2F21
:1004E80007C0E03749F473D27ED224D21E2F0860A9
:1004F80002600F7730E037C0E43611F0E93611F4C6
:10050800046002C0E53731F4E4E5F0E0EE83FF83F0
:1005180015E00CC0E83511F4086003C0E83709F0AD
:100528009EC0EEE5F0E0EE83FF8314E002FF15C005
:100538004ED2A889B9891496ED91FD91EA87FB8777
:10054800AB85AA2322F49DD2EA87FB874DE240308F
:1005580011F01F5F01C00B7F06C039D2A889B98985
:1005680024D2EA87FB8700FD10C0151770F407FF37
:1005780008C002FF04C00B7F242F115001C020E3E4
:1005880001C020E21DD25150F0CF312F01FF16C01B
:10059800303099F003FF06C0EE81FF812591EE838C
:1005A800FF8305C0AE81BF812D91AE83BF8308D282
:1005B800503009F051503150EBCF48C020E3EE8164
:1005C800FF8163D2E887F987EE81FF813296EE8357
:1005D800FF83E885F985AA85BB85AE17BF0750F06C
:1005E8002F5FA885B985EA85FB85EA1BFB0BEA879F
:1005F800FB87EFCF2A3328F003FF02C0295F01C031
:10060800295D04FD19C0213320F4A885B985119707
:1006180009F409C0531710F000FF01C011C020E20F
:1006280007FF0AC020E3006102FF06C00B7F4A9360
:10063800D4D1503009F05150C3D1503009F0515045
:100648003150A885B985129708F0B8CF00FF07C0C8
:10065800503029F05150E0E2EA93BFD1F9CF10E0D1
:10066800EDCEAC85BD85ED91FD9104D264960895DB
:10067800FF92F82E2697F7D1FE010024EF0DF01D0A
:1006880046855785042E052A19F4EFEFFFEF23C09E
:10069800DE0118960024AF0DB01D8D0148875987DB
:1006A800E0E0EA87EB87DE011C960024AF0DB01D61
:1006B800ED91FD91FA93EA931A930A93E9EEF1E02A
:1006C800FA93EA93DE011C96AEDE9F01A885B985F0
:1006D800E0E0EC93F901CED12C96FF9008951A939F
:1006E8001A2FE2B3EF70AE2FE12FE07FEA2BE2BBC7
:1006F8008BE18A95F1F7C29A8BE18A95F1F7C29856
:100708008BE18A95F1F70C944104AA93A881E7DF5D
:10071800E881E295E883A881E2DF88EC90E0019720
:10072800F1F72196089569D1E12FF0E0E059FE4FE5
:10073800E081E00FAE2FE9DFD02EC12E0C944B04E0
:10074800A2E060D1ACE0E1DFA1E05CD1E0E0CE2E38
:10075800DE2E08951A931A2F1A3021F0E0917401B1
:10076800DE1648F0E0E0EA93C394AC2DDCDF1A30E3
:1007780011F40C944104D394C09AA12FC6DFC098F9
:100788000C94410472D19D01D9012F5F3F4FEC9128
:100798001E2FE03019F0A12FDDDFF6CF6DD12496A2
:1007A80008951A931A2FE1B3E06FE1BBBA9AB89A89
:1007B800B99AC298C098C19810937401E12FE05873
:1007C800E0937201E12FE054E0937301A4E1B0E0FB
:1007D80065D11CD11BD11AD1A0E281DF80E991E05B
:1007E8000197F1F7A8E291DFA4E08FDFA5E88DDF9C
:1007F800A6E08BDFA5DF0C944104DD988BE18A9598
:10080800F1F708951A931A2FD79AD69AD59ADD9A9E
:100818008BE18A95F1F7A12F02D00C944104AA9399
:10082800E991A8E0E795DE9808F4DE9A0000000058
:1008380000000000DF9A8BE08A95F1F7DF988BE0E3
:100848008A95F1F7AA9571F708951A931A2FE12F4F
:10085800E160AE2FD7DFDE98D698A8E08894CE99CD
:100868000894E795DF9A8BE08A95F1F7DF988BE09B
:100878008A95F1F7AA9591F7C0DF19910895BDD02F
:10088800E02FEE7FAE2FBEDFA12FC9DFB6DF1981C3
:10089800088123960895C1D01370303009F0106A8A
:1008A800013011F4146005C0023011F4186001C061
:1008B80010E0B8D0E0E9EA93A12F28C0B7D0A5E8A6
:1008C800BCD0A3E8C0D0A1E80EC0A7D0ABD0E4E864
:1008D800C0D0E2E8C3D0E0E815C0A8D0A7E8ADD002
:1008E800A9E8B1D0ADE8B1DFAE2F31D0D801EC9393
:1008F800C1D02A96089591D095D0E6E8AAD0E8E824
:10090800ADD0ECE8EA93A12F2FD0AE2FB8DFEEE8F8
:10091800EA93A0E8B4DFB0D026960895BA93AA93D4
:10092800A991B991EE27FF276D91662311F03196B1
:10093800FBCF0895BA93AA93AA27BB27E991F99107
:100948000590002011F01196FBCFFD010895AA93A0
:10095800E881E295EF70AE2FAA0FAA0FEA0FEE0F0B
:10096800A991AF70EA0F0895AA93A991EE27AA500A
:1009780012F0E05FFCCFA65FEA0F08958A92BA9260
:10098800AA2DB9CFE0E6F1E0FA93EA930895FF279C
:10099800662777277ED00895EA2DF0E0E053F84FD8
:1009A8006F2F660F660B762F08951496ED91FC91C4
:1009B80011970895ED91FD913196FE93EE93089568
:1009C8002A93AD85BE85EF85F88909950895E8894C
:1009D800F9893497E88BF98B0895AD85BE85EF8545
:1009E800F88909950895A889B9891496ED91FD911A
:1009F800EE83FF83AE81BF8108951A930A931A2F5D
:100A08000A81089582DEA3E0B0E048C0A0E367DE73
:100A180080E991E00197F1F7089527D01A2F0C810A
:100A28003D810895EEE8EA93A0E029CF1CD08D011E
:100A38002E813F8148855985089507DFAE2F87DFCE
:100A4800DA01EC93089501DFAE2F81DFD901EC9331
:100A58000895EA93A32F88DFAE2F11CFEA93A02F32
:100A680083DFAE2F0CCF5A934A933A932A931A9363
:100A78000A9308955D814C813B812A8119810881FF
:100A88000895F195E195F04008950590F491E02DD1
:100A980008957A936A93FA93EA930895109639F031
:100AA800A89580EA9FE00197F1F71197C9F7089593
:00000001FF
