:0C0000000C944A000C9400000C940000CA
:10000C000C9400000C9400000C9400000C94CA009A
:10001C000C9400000C9400000C9400000C94000054
:10002C000C947A000C9400000C9499000C94000031
:10003C000C9400000C9400000C9400000C94000034
:10004C000C9400000C9400001027E80364000A00D4
:10005C000100001000011000010000000000494EDA
:10006C0054455252555054205472696767657265F5
:10007C00640054203D200043000001000200660093
:10008C000200040068000000F894EE27ECBBF1E0DD
:10009C00FBBFEBBFE5BFF8E1F1BDE1BD8DE0A2E038
:1000AC00BB27ED938A95E9F780E094E0A0E6ED9309
:1000BC000197E9F7E6E8F0E085919591009761F0FA
:1000CC00A591B59105901590BF01F00105900D9289
:1000DC000197E1F7FB01F0CFEFE5EDBFE4E0EEBFF8
:1000EC00C0E6D1E00C94AE01EA93FA93EFB7EA9331
:1000FC001A930A931BB10CB1E12FEC7189F4E72D23
:10010C007394F0E0E759FE4F0083E8E0E71509F43B
:10011C0077249394E8E0E91519F49924689420F86D
:10012C000991199112C0EA93FA93EFB7EA93AA20B6
:10013C0061F0AA94EB2DB394F0E0EF58FE4FE08100
:10014C00ECB9E8E0EB1509F4BB24E991EFBFF991A8
:10015C00E9911895E8E0EA15E9F3F894AA2011F46E
:10016C005D990DC0E82D8394F0E0EF58FE4FA88107
:10017C00A083E8E0E81509F48824A39402C0E88180
:10018C00ECB97894219608950A921A92FA926A938D
:10019C007A938A939A93AA93BA93EA93FA93EFB7C2
:1001AC00EA93F20131962F01E2E0F0E04E165F0681
:1001BC0054F044245524EAE6F0E00E9465035ED036
:1001CC00FA93EA9381D0E991EFBFF991E991B99152
:1001DC00A9919991899179916991F99019900990C6
:1001EC001895A79AAF9880ED97E00197F1F7AF9A21
:1001FC0080EF90E00197F1F7A7989F99FECF9F9B16
:10020C00FECF08951A93A79A10E01830C0F4AF9857
:10021C0085E38A95F1F7E981E17011F0AF9A01C09D
:10022C00AF9885ED8A95F1F7AF9A85E08A95F1F74D
:10023C00E981F0E0F595E795E9831F5FE6CF18813A
:10024C00229608951A930A9310E0183098F4A79AFE
:10025C00AF988BE08A95F1F7AF9AA7989F990068B1
:10026C00E02FF0E0F595E7950E2F80EF8A95F1F7EA
:10027C001F5FEBCFE02F0991199108950E94CA04DA
:10028C000E946C03E4E4EA93BDDF0E946C03EEEB86
:10029C00EA93B8DFD7DF0E2F1127D4DF2E2F3327A9
:1002AC00F22FE0E0E02BF12B662777270E94190450
:1002BC00A0E0B0E088EC90E40E9447040E94E003C8
:1002CC000E94D1042496089522970E94C804A88500
:1002DC00B985E8EEF3E00E94AA04F0968F01A88598
:1002EC00B985E8EEF3E00E94BD04DF01E4E6F0E03E
:1002FC000E94AA04F0969F01A885B985E4E6F0E077
:10030C000E94BD04DF01EAE0F0E00E94AA04F0962E
:10031C00AF01A885B985EAE0F0E00E94BD04F09633
:10032C00EE83FF83EEE7F0E00E9465032A9312DF71
:10033C004A9310DFEEE2EA930DDFEE81EA930ADFD7
:10034C00E3E8F0E00E9465030E94CF042A9608952A
:10035C00E0E0EBBBEABBE8BBE7BBE5BBE4BBE2BB65
:10036C00E1BBE3BFE2BFECBFEFBDEDE0EEBDE0E013
:10037C00EDBDECBDE7BDE6BDE8E9EBBDE6E9EABDE8
:10038C00E0E0E9BDE8BDE2BDE5BDE4BDE3BDE5BF30
:10039C00E4BFE9B7E061E9BFE0E0EBB9E8EDEAB949
:1003AC00E6E8E0BDE0E0E0BDE7E6E9B9E0E8E8B9A1
:1003BC00E0E0E0BFE6B9EDB9E6BF0E949B0378949C
:1003CC00FFCFFFCFEA81EA93C5DEA881B981ED9119
:1003DC00FD913196FE93EE932396089526970E94F5
:1003EC00C80410E0AC85BD85E0E0F0E0ED93FC9333
:1003FC00EA89FB893196EA8BFB8B3197E4912E2F9E
:10040C00E03011F40C942103E12FE03039F4253263
:10041C0011F411E002C00E9472030CC1E130A9F486
:10042C00253219F40E94720304C112E040E000E08E
:10043C002D3211F401E0FEC02B3211F44BE2FAC064
:10044C00203211F440E2F6C002C0E23039F450E040
:10045C0013E0203311F40068EDC004C0E33011F058
:10046C000C942003203310F02A3308F007C0AAE0C4
:10047C005A9F502DE22FE0535E0FDCC0E22FE33683
:10048C0049F40E947B03E889F989A481AA930E940C
:10049C008103CFC0E33741F40E947B030E948903A0
:1004AC000E9450031E2F0AC0E03761F40E947B03A8
:1004BC000E9489030E945A031E2F086002600F7766
:1004CC0030E035C0E43611F0E93611F4046002C0B6
:1004DC00E53731F4E4E5F0E0EE83FF8315E00DC081
:1004EC00E83511F4086004C0E83711F00C941F03D0
:1004FC00EEE5F0E0EE83FF8314E002FF14C00E94EF
:10050C007B030E949303AB85AA233AF4EA85FB850F
:10051C000E949904EA87FB874DE2403011F01F5F7F
:10052C0001C00B7F04C00E947B030E94930300FD5B
:10053C0011C0151778F407FF08C002FF04C00B7F29
:10054C00242F115001C020E301C020E20E9472034D
:10055C005150EFCF312F01FF17C03030A1F003FF06
:10056C0006C0EE81FF812591EE83FF8305C0AE812D
:10057C00BF812D91AE83BF830E947203503009F06E
:10058C0051503150EACF4BC020E3EE81FF810E94E5
:10059C00C404E887F987EE81FF813296EE83FF83EE
:1005AC00E885F985AA85BB85AE17BF0750F02F5F8C
:1005BC00A885B985EA85FB85EA1BFB0BEA87FB87D7
:1005CC00EFCF2A3328F003FF02C0295F01C0295D59
:1005DC0004FD1AC0213320F4A885B985119709F4BC
:1005EC0009C0531710F000FF01C013C020E207FF31
:1005FC000BC020E3006102FF07C00B7F4A930E94EF
:10060C008103503009F051500E947203503009F0B0
:10061C0051503150A885B985129708F0B5CF00FF1D
:10062C0008C0503031F05150E0E2EA930E9481034F
:10063C00F8CF10E0DDCEAC85BD850E94C0040E94D1
:10064C00CF0464960895FF92F82E26971A930A9376
:10065C00DE0114960E9495048D01E0E0EC83ED839D
:10066C00EE83EF83DE0118960E9495040E94C0046D
:10067C00FA93EA931A930A93E8EEF1E0FA93EA9369
:10068C00FE013896FA93EA93A9DE1981088128961F
:10069C00FF900895A991B991EE27FF276D916623DC
:1006AC0011F03196FBCF0895AA27BB27E991F99158
:1006BC000590002011F01196FBCFFD010895FA93DF
:1006CC00EA9380E00E942903229608950E94F70085
:1006DC00ECECEA930C9408012A93ED85FE85FA93D1
:1006EC00EA93E989FA8909950895E889F989349793
:1006FC00E88BF98B0895ED85FE85FA93EA93E989E9
:10070C00FA8909950895A889B98914960E94C0049C
:10071C00EE83FF83FA93EA930895A889B989149616
:10072C000E94C004EA87FB870895EE27AF98A79A2A
:10073C0080E897E00197F1F7A7988BE48A95F1F799
:10074C009F9B089580E391E00197F1F79F9BE1E077
:10075C0088E196E00197F1F70895552342F450385B
:10076C0011F4E0FF04C03196691F791F6BF050E85B
:10077C00572711F45F9373C05F3F31F0660F000C85
:10078C0057956795752F08955F9300200AF073C0F5
:10079C006CC050E8192E1522880F991F9527550FFC
:1007AC00879550E8072E0522660F771F7527550F82
:1007BC0067950895689401C0E8945F93F2DF7038F0
:1007CC0018F07F3F08F44BC056E1571BAAF4519523
:1007DC0058300EF4593030F0EFEFFFEF6FEF7FE74A
:1007EC0077F91AC077275523B9F0EE0FFF1F661F54
:1007FC00771F5A95D1F710C07727583028F0EF2F74
:10080C00F62F672F5850F9CF552331F07695679511
:10081C00F795E7955A95D1F700200AF488D05F91A7
:10082C000895689401C0E894309760407040B1F02E
:10083C00002426F0772312F4009479D0172E7EE151
:10084C00112032F07A95EE0FFF1F661F111CF9CFA5
:10085C00EF2FF62F612D5F938ADF5F910895EE27BE
:10086C00FF27662777275F910895EFEFFFEF6FE77C
:10087C007FEF5F910895EFEFFFEF6FE77FE75F91F9
:10088C0008955F9386DF703851F3903841F301245B
:10089C000894791F23F41CF300203AF3ECCF0F9249
:1008AC001F932F933F934F93112722279927689FCC
:1008BC00A0018F9F302D410D591F6B9F300D411D95
:1008CC00591F8E9F27D0BF9F25D06A9F23D0BE9FD4
:1008DC001DD0AF9F1BD0AE9F110D291F391F491F73
:1008EC00591FE32FF42F652F522F4F913F912F91CA
:1008FC001F910F9066232AF0550FEE1FFF1F661FE6
:10090C0002C073954BF229DF5F910895100D211DE4
:10091C00391F02C0200D311D491F591F0895002495
:10092C00AF0DB01D0895F195E195F0400895F09547
:10093C0060957095E195FF4F6F4F7F4F08956F2F26
:10094C00660F660B762F08950024112490E1AA0FF0
:10095C00BB1F001C111C0E1A1F0A18F40E0E1F1EB2
:10096C0001C0A1609A9599F7FD01D0010895ECDFC3
:10097C00FD010895ED91FC91119708950590F49166
:10098C00E02D08955A934A933A932A931A930A9313
:10099C0008955D814C813B812A81198108810895DC
:00000001FF
