:0A0000000C942A000C9448000C94A4
:10000A004B000C9400000C9400000C9400000C941B
:10001A0000000C9400000C9400000C9400000C9456
:10002A0000000C9400000C9400000C9400000C9446
:10003A0000000C9400000C9400000C9400000C9436
:10004A0000000C9400000C940000F894EE27ECBB1E
:10005A00F1E0FBBFEBBFE5BFF8E1F1BDE1BD8DE02B
:10006A00A2E0BB27ED938A95E9F780E094E0A0E649
:10007A00ED930197E9F7EFE5EDBFE4E0EEBFC0E6E7
:10008A00D1E00C944E00DB9ADC981895DC9ADB9848
:10009A001895E0E0EABBEBBBE7BBE8BBE4BBE5BB1A
:1000AA00E1BBE2BBE3BFE2BFECBFEFBDEEBDEDBD1E
:1000BA00ECBDE7BDE6BDEBBDEABDE9BDE8BDE2BD0D
:1000CA00E5BDE4BDE3BDE9BFEBB7E06CEBBFEAE039
:1000DA00E5BFE0E0E4BFE0ECEABFE0E0EAB9E0E86F
:1000EA00E8B9E0E0E0BFE6B9EDB9E6BF7894BB9ABB
:1000FA00C39A04D0C39802D0FBCFFFCFE2E3F0E06B
:10010A00FA93EA930C948900E991F991309639F0BF
:10011A0080EA9FE00197F1F7A8953197C9F708950A
:00000001FF
