:040000000C942A0032
:100004000C9446000C944D000C9400000C940000D9
:100014000C9400000C9445000C9400000C94000017
:100024000C9400000C9400000C9400000C9400004C
:100034000C9400000C9400000C9400000C9400003C
:100044000C9400000C9400000C9400000C9400002C
:10005400F894EE27ECBBF1E0FBBFEBBFE5BF8DE00E
:10006400A2E0BB27ED938A95E9F780E094E0A0E64F
:10007400ED930197E9F7EFE5EDBFE4E0EEBFC0E6ED
:10008400D1E00C946500189560D0E63F18F4ECB705
:10009400E65FECBF06C059D0EB3018F0ECB7EA507D
:1000A400ECBFE991EFBFE991189586D08D012C81C1
:1000B4003D812CBF8BD0E0E0ECBFA2E3B0E086D062
:1000C40080D026960895E0E0EABBEBBBE7BBE8BB33
:1000D400E4BBE5BBE0E2E1BBE0E0E2BBECE1E3BFB3
:1000E400E0E0E2BFECBFE0E4EFBDECE0EEBDE0E059
:1000F400EDBDECBDE7BDE6BDEAE7EBBDE1E1EABD80
:10010400E0E0E9BDE8BDE2BDE5BDE4BDE3BDE0E19D
:10011400E9BFEBB7E06CEBBFEAE0E5BFE0E0E4BFCA
:10012400E0ECEABFE0E0EAB9E0E8E8B9E0E0E0BF2B
:10013400E6B9EDB9E6BF7894BB9A0CD012D0A4EF1F
:10014400B1E044D007D00DD0FFCFEA93EFB7EA93E4
:10015400ECB70895EFE4F0E0FA93EA93A4EFB1E08A
:10016400A4CFEAE3F0E0FA93EA93A4EFB1E09DDFD1
:10017400EFE2F0E0FA93EA93A4EFB1E096DFE7E26E
:10018400F0E0FA93EA93A4EFB1E08FDFEDE2F0E060
:10019400FA93EA93A4EFB1E088DFE5E3F0E0FA93A1
:1001A400EA93A4EFB1E081DFE2E4F0E0FA93EA93AA
:1001B400A4EFB1E07ADFCECF3A932A931A930A934D
:1001C40008953B812A81198108810895109639F098
:1001D400A89580EA9FE00197F1F71197C9F7089570
:00000001FF
