:040000000C947B00E1
:100004000C94AB000C9400000C9400000C940000C1
:100014000C9400000C9400000C9400000C9400005C
:100024000C94AC000C9400000C9400000C940000A0
:100034000C9400000C94BF000C9400000C9400007D
:100044000C9400000C9400000C9400000C9400002C
:10005400000001000200030003000000F7FFE7FFB7
:10006400CEFFABFF7FFF4DFF1BFFF1FEDCFEE9FE81
:1000740027FFA5FF6F008F010703D304E7062E09AE
:100084008D0BE40D0F10EB1159133F148D143F1415
:100094005913EB110F10E40D8D0B2E09E706D30451
:1000A40007038F016F00A5FF27FFE9FEDCFEF1FEC9
:1000B4001BFF4DFF7FFFABFFCEFFE7FFF7FF000005
:1000C400030003000200010000001027E80364009D
:1000D4000A00010000100001100001007F0A000066
:1000E400000080C006000400E0000200E001E60019
:1000F4000000F894EE27ECBBF1E0FBBFEBBFE5BFDB
:10010400F8E1F1BDE1BD8DE0A2E0BB27ED938A9556
:10011400E9F780E094E0A0E6ED930197E9F7E8EED3
:10012400F0E085919591009761F0A591B5910590C6
:100134001590BF01F00105900D920197E1F7FB01C5
:10014400F0CFEFE5EDBFE4E0EEBFC0E6D1E00C9404
:10015400E3001895EA93EFB7EA93E2EBE2BF5A940F
:10016400552039F4EAE05E2EDA9B02C0DA9801C029
:10017400DA9AE991EFBFE9911895AA93BA93EA93B1
:10018400FA93EFB7EA931A930A9304B115B1E62DE3
:100194000E940602EA0FFB1F00831183E92DAAEDDA
:1001A400B1E00E940C02008311839394E1E07E2E5F
:1001B40009911991E991EFBFF991E991B991A99147
:1001C4001895E0E0EBBBE2E0EABBE0E0E8BBE7BBAC
:1001D400E5BBE4BBE2BBE1BBE5E0E3BFE2EBE2BFCE
:1001E400E0E0ECBFEFBDECE0EEBDE0E0EDBDECBD6A
:1001F400E7BDE9EFE6BDE0E0E2BDE5BDE4BDE3BD9A
:10020400EBB7E064EBBFE2E0E5BFE0E0E4BFE0E4CD
:10021400EABFE1E1E9BFE0E0EBB9E8E1EAB9E6E829
:10022400E0BDE0E0E0BDE7E6E9B9E0E8E8B9E0E038
:10023400E0BFE5E4E7B9EEEAE6B9E0B7EF71E0BFA5
:10024400E0B7E06EE0BFE0E0EDB9E6BFE8E0EA93D6
:10025400A1D07894E1E0E71511F00C948A01249779
:10026400E0E0E883E983EA83EB83062D10E01D33A5
:1002740098F5A02FBB27E12FF0E00E94BB02EA1BF8
:10028400FB0BFC96DF01EDE3F0E00E9483020E2FEE
:10029400E02F0E940602AE0FBF1F0E94A402662731
:1002A40077277F936F93FF93EF93E12FA4E5B0E05B
:1002B4000E940C020E94A802AF91BF918F919F915E
:1002C4000E9446020E946B020E94AC020E9430020D
:1002D4000E94B1021F5FCBCFE92DF0E03197ACED66
:1002E400B1E00E944102EA0FFB1F0E94AC020E948F
:1002F400B602E62DF0E03196DF01EDE3F0E00E9476
:1003040083026E2EE1E4EA930E940002772424968D
:10031400A1CFFFCFE881E07111F0949A01C09498C5
:10032400E881E07211F0959A01C09598E881E07433
:1003340011F0969A01C09698E881E07811F0979AA6
:1003440001C097988BE08A95F1F7C29A8BE18A9560
:10035400F1F7C2988BE18A95F1F70C940402E881D5
:10036400EA93D8DFE881E295E883E881EA93D2DF73
:1003740088EC90E00197F1F745C0E2E00E94120298
:10038400ECE0EA93ECDFE1E00E941202E0E0BE2E32
:100394008E2E08958C9A8D9A8E9A8F9ABA9AB89ABC
:1003A400B99AC298C098C198A880E881E058E093AF
:1003B400E201E881E054E093E301E4E1F0E0FA9340
:1003C400EA930E9424020E941B020E941B020E94C4
:1003D4001B02E0E2EA939EDF80E991E00197F1F7E6
:1003E400E8E2EA93BCDFE4E0EA93B9DFE5E8EA9304
:1003F400B6DFE6E0EA93B3DFC0DF04C05D9BFECF67
:10040400E881ECB921960895A0E6B1E0F0E0EE0FA2
:10041400FF1F0895F0E0EE0FFF1FEA0FFB1F089582
:10042400EA930E94B101E3E0F0E0FA93EA930C94BA
:100434002402E0E3EA930E948C0180E991E00197B1
:10044400F1F70895E991F991309639F080EA9FE047
:100454000197F1F7A8953197C9F70895EA0FFB1FA3
:10046400681F791F0895F195E195F0400895F0957E
:1004740060957095E195FF4F6F4F7F4F0895EE0F94
:10048400FF1FEE0FFF1F08956F2F660F660B762F69
:1004940008957A9F702D6B9F700DF89F700DE99FE2
:1004A400700D6A9F602D710DFB9F600D711DE89F9B
:1004B400600D711D8827FA9FF02D610D781FEB9F49
:1004C400F00D611D781FEA9FE02DF10D681F781F64
:1004D400089525D0DEDF0EF4CADF08950024112428
:1004E40090E1AA0FBB1F001C111C0E1A1F0A18F45E
:1004F4000E0E1F1E01C0A1609A9599F7FD01D0014F
:100504000895E894B7FF04C0A095B0951196689437
:10051400F7FDA9DFE3DFFD010EF4A5DF0895E894FC
:1005240077FF02C0A4DF689497FF0BC00024A09556
:10053400B095809590951196801D901D00F80394B8
:1005440000FA0895ED91FC91119708950590F491A6
:10055400E02D0895A881B9818A819B810895E8835B
:10056400F9836A837B830895A083B1838283938311
:1005740008951B2EBF2FF12D1A2EAE2FE12D0895B5
:00000001FF
