:100000000C944C000C9479000C947A000C94000031
:100010000C9400000C9400000C9400000C94000060
:100020000C9400000C9400000C9400000C94000050
:100030000C9400000C9400000C9400000C94000040
:100040000C9400000C9400000C9400000C94000030
:100050000C9400001027E80364000A00010000105F
:1000600000011000010054696D653A202532643AA0
:10007000253032643A253032640A00446174653AAE
:10008000202532642F253032642F2564000080C083
:10009000020070018E000000F894EE27ECBBF1E046
:1000A000FBBFEBBFE5BF8DE0A2E0BB27ED938A95D8
:1000B000E9F780E094E0A0E6ED930197E9F7E0E945
:1000C000F0E085919591009761F0A591B59105902B
:1000D0001590BF01F00105900D920197E1F7FB012A
:1000E000F0CFEFE5EDBFE4E0EEBFC0E6D1E00C9469
:1000F0007B0018951895E0E0EABBEBBBE7BBE8BBDB
:10010000E4BBE5BBE1BBE2BBE3BFE2BFECBFEFBDDD
:10011000EEBDEDBDECBDE7BDE6BDEBBDEABDE9BDA5
:10012000E8BDE2BDE5BDE4BDE3BDE9BFEBB7E06C12
:10013000EBBFEAE0E5BFE0E0E4BFE0ECEABFE0E00F
:10014000EAB9E0E8E8B9E0E0E0BFE6B9EDB9E6BF5A
:10015000E1E0EA93EA93A3E0C3D2A0E148D2789425
:10016000E1E1EA93E0E3EA93A0E0D4D2E8E0EA93A5
:10017000EDE0EA93A8E1E4D2EDB7FEB7FA93EA9393
:100180001F93EDB7FEB7FA93EA930F93ADB7BEB7DF
:100190003F93B9D23F910F911F91EDB7FEB7FA93FC
:1001A000EA932F93EDB7FEB7FA93EA935F93ADB757
:1001B000BEB74F93B7D24F915F912F9104D3E6E62C
:1001C000F0E0FA93EA93E12F03D3E02F01D3E32F7A
:1001D000FFD28CE075D16096DBD1A0E6B1E0F8D11A
:1001E000F2D2EBE7F0E0FA93EA93E22FF1D2E52FB7
:1001F000EFD2E42FF0E0E053F84F6F2F660F660B5D
:10020000762F5FD38CE05CD16096A0E6B1E0E0D1C0
:10021000A4EFB1E05BD3B0CFFFCF3DD39D015E81B2
:100220001296ED91FC9111973097E9F0D901D5D252
:100230008F01309759F00230E0E01E0760F0F801BE
:1002400031978F01D9011496ED93FC93D901129641
:10025000C9D231975083D901ED91FC911197FF23B9
:100260000AF0C0D205C0D901EFEFFFEFED93FC9388
:1002700019D327960895BA93AA9326970CD310E022
:10028000AC85BD85E0E0F0E0ED93FC93EA89FB8965
:100290003196EA8BFB8B3197E4912E2FE03009F4F5
:1002A00008C1E12FE03031F4253211F411E001C032
:1002B0009FD2FEC0E130A1F4253211F499D2F7C0EB
:1002C00012E040E000E02D3211F401E0F1C02B32E9
:1002D00011F44BE2EDC0203211F440E2E9C002C05B
:1002E000E23039F450E013E0203311F40068E0C04C
:1002F00003C0E33009F0DCC0203310F02A3308F0EB
:1003000007C0AAE05A9F502DE22FE0535E0FD0C0E5
:10031000E22FE33639F473D2E889F989A481AA93EC
:1003200074D2C5C0E33729F46AD275D21CD21E2F0D
:1003300007C0E03749F463D26ED221D21E2F086085
:1003400002600F7730E037C0E43611F0E93611F47F
:10035000046002C0E53731F4E4E5F0E0EE83FF83AA
:1003600015E00CC0E83511F4086003C0E83709F067
:100370009EC0EEE5F0E0EE83FF8314E002FF15C0BF
:100380003ED2A889B9891496ED91FD91EA87FB8741
:10039000AB85AA2322F48DD2EA87FB874DE2403059
:1003A00011F01F5F01C00B7F06C029D2A889B9894F
:1003B00014D2EA87FB8700FD10C0151770F407FF01
:1003C00008C002FF04C00B7F242F115001C020E39E
:1003D00001C020E20DD25150F0CF312F01FF16C0E5
:1003E000303099F003FF06C0EE81FF812591EE8346
:1003F000FF8305C0AE81BF812D91AE83BF83F8D14D
:10040000503009F051503150EBCF48C020E3EE811D
:10041000FF8153D2E887F987EE81FF813296EE8320
:10042000FF83E885F985AA85BB85AE17BF0750F025
:100430002F5FA885B985EA85FB85EA1BFB0BEA8758
:10044000FB87EFCF2A3328F003FF02C0295F01C0EA
:10045000295D04FD19C0213320F4A885B9851197C1
:1004600009F409C0531710F000FF01C011C020E2C9
:1004700007FF0AC020E3006102FF06C00B7F4A931A
:10048000C4D1503009F05150B3D1503009F051501F
:100490003150A885B985129708F0B8CF00FF07C082
:1004A000503029F05150E0E2EA93AFD1F9CF10E09B
:1004B000EDCEAC85BD85ED91FD91F4D164960895A6
:1004C000FF92F82E2697E7D1FE010024EF0DF01DD4
:1004D00046855785042E052A19F4EFEFFFEF23C058
:1004E000DE0118960024AF0DB01D8D014887598795
:1004F000E0E0EA87EB87DE011C960024AF0DB01D1B
:10050000ED91FD91FA93EA931A930A93EDE0F1E0ED
:10051000FA93EA93DE011C96AEDE9F01A885B985A9
:10052000E0E0EC93F901BED12C96FF9008951A9368
:100530001A2FE2B3EF70AE2FE12FE07FEA2BE2BB80
:100540008BE18A95F1F7C29A8BE18A95F1F7C2980F
:100550008BE18A95F1F70C946203AA93A881E7DFF7
:10056000E881E295E883A881E2DF88EC90E00197DA
:10057000F1F72196089559D1E12FF0E0E059FE4FAF
:10058000E081E00FAE2FE9DF502E412E0C946C037A
:10059000A2E050D1ACE0E1DFA1E04CD1E0E04E2E92
:1005A0005E2E08951A931A2F1A3011F0571448F03E
:1005B000E0E0EA934394A42DDEDF1A3011F40C94AA
:1005C00062035394C09AA12FC8DFC0980C946203B1
:1005D00064D19D01D9012F5F3F4FEC911E2FE03078
:1005E00019F0A12FDFDFF6CF5FD1249608951A937B
:1005F0001A2FE1B3E06FE1BBBA9AB89AB99AC298E0
:10060000C098C198712EE12FE058E0937201E12F5C
:10061000E054E0937301A4E1B0E058D10FD10ED1C2
:100620000DD1A0E284DF80E991E00197F1F7A8E223
:1006300094DFA4E092DFA5E890DFA6E08EDFA8DFDC
:100640000C946203DD988BE18A95F1F708951A9373
:100650001A2FD79AD69AD59ADD9A8BE18A95F1F717
:10066000A12F02D00C946203AA93E991A8E0E79528
:10067000DE9808F4DE9A0000000000000000DF9A17
:100680008BE08A95F1F7DF988BE08A95F1F7AA95D0
:1006900071F708951A931A2FE12FE160AE2FD7DF7B
:1006A000DE98D698A8E08894CE990894E795DF9ACA
:1006B0008BE08A95F1F7DF988BE08A95F1F7AA95A0
:1006C00091F7C0DF19910895B0D0E02FEE7FAE2FE3
:1006D000BEDFA12FC9DFB6DF1981088123960895F7
:1006E000B4D01370303009F0106A013011F4146086
:1006F00005C0023011F4186001C010E0ABD0E0E991
:10070000EA93A12F28C0AAD0A5E8AFD0A3E8B3D020
:10071000A1E80EC09AD09ED0E4E8B3D0E2E8B6D00B
:10072000E0E815C09BD0A7E8A0D0A9E8A4D0ADE828
:10073000B1DFAE2F31D0D801EC93B4D02A96089512
:1007400084D088D0E6E89DD0E8E8A0D0ECE8EA9331
:10075000A12F2FD0AE2FB8DFEEE8EA93A0E8B4DFE8
:10076000A3D026960895BA93AA93A991B991EE279A
:10077000FF276D91662311F03196FBCF0895BA9350
:10078000AA93AA27BB27E991F9910590002011F0BF
:100790001196FBCFFD010895AA93E881E295EF70D1
:1007A000AE2FAA0FAA0FEA0FEE0FA991AF70EA0FB2
:1007B0000895AA93A991EE27AA5012F0E05FFCCF0A
:1007C000A65FEA0F0895E0E6F1E0FA93EA93089550
:1007D000FF276627772775D008951496ED91FC9131
:1007E00011970895ED91FD913196FE93EE93089542
:1007F0002A93AD85BE85EF85F88909950895E88926
:10080000F9893497E88BF98B0895AD85BE85EF851E
:10081000F88909950895A889B9891496ED91FD91F3
:10082000EE83FF83AE81BF8108951A930A931A2F36
:100830000A81089592DEA3E0B0E048C0A0E377DE2D
:1008400080E991E00197F1F7089527D01A2F0C81E4
:100850003D810895EEE8EA93A0E036CF1CD08D01EB
:100860002E813F8148855985089514DFAE2F94DF8E
:10087000DA01EC9308950EDFAE2F8EDFD901EC93F1
:100880000895EA93A32F95DFAE2F1ECFEA93A02FF2
:1008900090DFAE2F19CF5A934A933A932A931A9323
:1008A0000A9308955D814C813B812A8119810881D9
:1008B0000895F195E195F04008950590F491E02DAB
:1008C00008957A936A93FA93EA930895109639F00B
:1008D000A89580EA9FE00197F1F71197C9F708956D
:00000001FF
