:040000000C943A0022
:100004000C9467000C946D000C9400000C94000098
:100014000C9400000C9400000C9400000C9400005C
:100024000C9473000C9400000C9400000C940000D9
:100034000C9400000C9478000C9400000C940000C4
:100044000C9400000C9400000C9400000C9400002C
:100054001027E80364000A000100001000011000EA
:1000640001002564000080C0020060016A000000F5
:10007400F894EE27ECBBF1E0FBBFEBBFE5BF8DE0EE
:10008400A2E0BB27ED938A95E9F780E094E0A0E62F
:10009400ED930197E9F7ECE6F0E0859195910097EF
:1000A40061F0A591B59105901590BF01F0010590FF
:1000B4000D920197E1F7FB01F0CFEFE5EDBFE4E02E
:1000C400EEBFC0E6D1E00C94B300B4D23898C0D2ED
:1000D400A0E3C5D238C0AED2389ABAD2A1E3BFD217
:1000E40032C0EA93E3E8E2BFE9911895A3D260979E
:1000F400F0D204B115B1D80188279927E8E8F3E1D3
:1001040060E070E0F6D2DF01CB01E0E0F4E060E013
:1001140070E00FD39F01FE013496FA93EA93E6E66A
:10012400F0E0FA93EA93F901662777272AD384E06B
:10013400A5D12896E6E0EA93A0E0FAD1DE01149670
:1001440026D2CED26496E991EFBFF991E991B991A3
:10015400A9919991899179916991F990199009904E
:100164001895E0E0EABBEBBBE7BBE8BBE4BBE5BB4F
:10017400E1BBE2BBE4E0E3BFE3E8E2BFE0E0ECBF05
:10018400EFBDEEBDEDBDECBDE7BDE6BDEBBDEABD2B
:10019400E9BDE8BDE2BDE5BDE4BDE3BDE1E0E9BF25
:1001A400EBB7E06CEBBFEAE0E5BFE0E0E4BFE0EC16
:1001B400EABFE0E0EAB9E0E8E8B9E0E4E7B9EFEA89
:1001C400E6B9E0E8E0BFE0E0EDB9E6BFA0E1EED1DA
:1001D4007894FFCFFFCF7BD29D015E811296ED9183
:1001E400FC9111973097E9F0D9013ED28F013097F5
:1001F40059F00230E0E01E0760F0F80131978F01FA
:10020400D9011496ED93FC93D901129632D2319709
:100214005083D901ED91FC911197FF230AF029D263
:1002240005C0D901EFEFFFEFED93FC9357D227966A
:100234000895BA93AA9326974AD210E0AC85BD8557
:10024400E0E0F0E0ED93FC93EA89FB893196EA8BD8
:10025400FB8B3197E4912E2FE03009F408C1E12F94
:10026400E03031F4253211F411E001C008D2FEC0AF
:10027400E130A1F4253211F402D2F7C012E040E0DB
:1002840000E02D3211F401E0F1C02B3211F44BE205
:10029400EDC0203211F440E2E9C002C0E23039F48A
:1002A40050E013E0203311F40068E0C003C0E330F1
:1002B40009F0DCC0203310F02A3308F007C0AAE0AC
:1002C4005A9F502DE22FE0535E0FD0C0E22FE33649
:1002D40039F4DCD1E889F989A481AA93DDD1C5C0B8
:1002E400E33729F4D3D1DED18CD11E2F07C0E037F8
:1002F40049F4CCD1D7D191D11E2F086002600F7779
:1003040030E037C0E43611F0E93611F4046002C07D
:10031400E53731F4E4E5F0E0EE83FF8315E00CC04B
:10032400E83511F4086003C0E83709F09EC0EEE533
:10033400F0E0EE83FF8314E002FF15C0A7D1A88983
:10034400B9891496ED91FD91EA87FB87AB85AA23C1
:1003540022F4CBD1EA87FB874DE2403011F01F5FD6
:1003640001C00B7F06C092D1A889B9897DD1EA87E3
:10037400FB8700FD10C0151770F407FF08C002FFCB
:1003840004C00B7F242F115001C020E301C020E2E0
:1003940076D15150F0CF312F01FF16C0303099F093
:1003A40003FF06C0EE81FF812591EE83FF8305C024
:1003B400AE81BF812D91AE83BF8361D1503009F0EE
:1003C40051503150EBCF48C020E3EE81FF81D5D1AD
:1003D400E887F987EE81FF813296EE83FF83E88513
:1003E400F985AA85BB85AE17BF0750F02F5FA88596
:1003F400B985EA85FB85EA1BFB0BEA87FB87EFCF10
:100404002A3328F003FF02C0295F01C0295D04FDDF
:1004140019C0213320F4A885B985119709F409C0BE
:10042400531710F000FF01C011C020E207FF0AC0FB
:1004340020E3006102FF06C00B7F4A932DD15030A8
:1004440009F051501CD1503009F051503150A88559
:10045400B985129708F0B8CF00FF07C0503029F0D3
:100464005150E0E2EA9318D1F9CF10E0EDCEAC851B
:10047400BD85ED91FD9132D164960895FF92F82ED9
:10048400269725D1FE010024EF0DF01D46855785E2
:10049400042E052A19F4EFEFFFEF23C0DE011896AE
:1004A4000024AF0DB01D8D0148875987E0E0EA872D
:1004B400EB87DE011C960024AF0DB01DED91FD917C
:1004C400FA93EA931A930A93EDEEF0E0FA93EA931F
:1004D400DE011C96AEDE9F01A885B985E0E0EC93B1
:1004E400F901FCD02C96FF9008951A931A2FE2B3C9
:1004F400EF70AE2FE12FE07FEA2BE2BB8BE18A9510
:10050400F1F7C29A8BE18A95F1F7C2988BE18A954B
:10051400F1F775C0AA93A881E8DFE881E295E88342
:10052400A881E3DF88EC90E00197F1F72196089524
:100534001A930A931A2F0A81E12FF0E0E05AFE4F32
:10054400E081E00FAE2FE6DF502E412E19810881A5
:1005540023960895A2E0B0D0ACE0DCDFA1E0ACD0FB
:10056400E0E04E2E5E2E08951A931A2F1A3011F0E1
:10057400571438F0E0E0EA934394A42DD9DF1A30FD
:10058400F1F15394C09AA12FC5DFC09838C0A1D00F
:100594009D01D9012F5F3F4FEC911E2FE03019F0E0
:1005A400A12FE2DFF6CF9CD0249608951A931A2F38
:1005B400E1B3E06FE1BBBA9AB89AB99AC298C0980D
:1005C400C198712EE12FE058E0936201E12FE054CD
:1005D400E0936301A4E1B0E0D9D072D071D070D0BF
:1005E400A0E283DF80E991E00197F1F7A8E292DFCE
:1005F400A4E090DFA5E88EDFA6E08CDFABDF1991E5
:100604000895BA93AA93A991B991EE27FF276D9102
:10061400662311F03196FBCF0895BA93AA93AA27C3
:10062400BB27E991F9910590002011F01196FBCFB9
:10063400FD0108950A921A92FA926A937A938A9320
:100644009A93AA93BA93EA93FA93EFB7EA93089525
:1006540081DFA1E489DFA4E487DFA3E485CF84DF1D
:10066400AAE382DFA0E280CF1496ED91FC9111976A
:100674000895ED91FD913196FE93EE9308952A939A
:10068400AD85BE85EF85F88909950895E889F989CE
:100694003497E88BF98B0895AD85BE85EF85F8898D
:1006A40009950895A889B9891496ED91FD91EE8371
:1006B400FF83AE81BF8108952DDFA3E0B0E066C063
:1006C400A0E313DF80E991E00197F1F708955A93CD
:1006D4004A933A932A931A930A9308955D814C811D
:1006E4003B812A81198108810895F195E195F040B3
:1006F40008957A9F702D6B9F700DF89F700DE99F80
:10070400700D6A9F602D710DFB9F600D711DE89F38
:10071400600D711D8827FA9FF02D610D781FEB9FE6
:10072400F00D611D781FEA9FE02DF10D681F781F01
:1007340008953F934F935F9300241124A00130E266
:10074400AA0FBB1F881F991F001C111C441F551F93
:100754000E1A1F0A460B570B28F40E0E1F1E461FB7
:10076400571F01C0A1603A9559F7FD01BC01D001A2
:10077400CA015F914F913F9108950590F491E02D46
:1007840008957A936A93FA93EA930895109639F048
:10079400A89580EA9FE00197F1F71197C9F70895AA
:00000001FF
