:040000000C943B0021
:100004000C9400000C9400000C9400000C9400006C
:100014000C9400000C9400000C9400000C9400005C
:100024000C9400000C9400000C9400000C9400004C
:100034000C9400000C9459000C9400000C940000E3
:100044000C9400000C9400000C9400000C9400002C
:100054001027E80364000A000100001000011000EA
:1000640001006164635F76616C75653A2025640AFA
:100074000000F894EE27ECBBF1E0FBBFEBBFE5BF5B
:10008400F8E1F1BDE1BD8DE0A2E0BB27ED938A95D7
:10009400E9F780E094E0A0E6ED930197E9F7EFE556
:1000A400EDBFE4E0EEBFC0E6D1E00C946200EA9359
:1000B400349A44B055B0E1E0E0936001E9911895B9
:1000C400E0E0EFBDE1E0EEBDE0E0EDBDECBDE7BD9D
:1000D400E6BDEBBDEABDE9BDE8BDE5BFE4BFE9BFF0
:1000E400EBB9E8E1EAB9E6E8E0BDE0E0E0BDE7E667
:1000F400E9B9579A569AE0E8E8B9E0E4E7B9ECEAD6
:10010400E6B9E0B7EF71E0BFE0B7E06CE0BF789428
:10011400E6E6F0E0FA93EA93F201662777270E9475
:100124006F0284E00E94FA012696A0916001A1303A
:1001340041F4E0E0E0936001E0916101EF5FE0935E
:100144006101A0916101A13019F4E1E3EA9309D0BE
:10015400A0916101A23019F4E2E3EA9302D0D8CF6E
:10016400FFCF5D9BFECFE881ECB921960895EA812B
:10017400EA93F7DFA881B981ED91FD913196FE9361
:10018400EE932396089526970E94740210E0AC859E
:10019400BD85E0E0F0E0ED93FC93EA89FB893196BC
:1001A400EA8BFB8B3197E4912E2FE03011F40C9401
:1001B400F201E12FE03039F4253211F411E002C0EC
:1001C4000E9436020CC1E130A9F4253219F40E94D0
:1001D400360204C112E040E000E02D3211F401E0E7
:1001E400FEC02B3211F44BE2FAC0203211F440E28B
:1001F400F6C002C0E23039F450E013E0203311F4C9
:100204000068EDC004C0E33011F00C94F101203318
:1002140010F02A3308F007C0AAE05A9F502DE22FAD
:10022400E0535E0FDCC0E22FE33649F40E943F0244
:10023400E889F989A481AA930E944502CFC0E337D3
:1002440041F40E943F020E944D020E9421021E2F8F
:100254000AC0E03761F40E943F020E944D020E94EE
:100264002B021E2F086002600F7730E035C0E436A1
:1002740011F0E93611F4046002C0E53731F4E4E525
:10028400F0E0EE83FF8315E00DC0E83511F408605B
:1002940004C0E83711F00C94F001EEE5F0E0EE83D1
:1002A400FF8314E002FF14C00E943F020E94570221
:1002B400AB85AA233AF4EA85FB850E946302EA87A8
:1002C400FB874DE2403011F01F5F01C00B7F04C07B
:1002D4000E943F020E94570200FD11C0151778F4D6
:1002E40007FF08C002FF04C00B7F242F115001C078
:1002F40020E301C020E20E9436025150EFCF312F9B
:1003040001FF17C03030A1F003FF06C0EE81FF816A
:100314002591EE83FF8305C0AE81BF812D91AE830D
:10032400BF830E943602503009F051503150EACF59
:100334004BC020E3EE81FF810E946B02E887F987BE
:10034400EE81FF813296EE83FF83E885F985AA85E5
:10035400BB85AE17BF0750F02F5FA885B985EA8526
:10036400FB85EA1BFB0BEA87FB87EFCF2A3328F0D8
:1003740003FF02C0295F01C0295D04FD1AC02133B7
:1003840020F4A885B985119709F409C0531710F012
:1003940000FF01C013C020E207FF0BC020E300618F
:1003A40002FF07C00B7F4A930E944502503009F0B8
:1003B40051500E943602503009F051503150A885F6
:1003C400B985129708F0B5CF00FF08C0503031F05E
:1003D4005150E0E2EA930E944502F8CF10E0DDCEEE
:1003E400AC85BD850E9467020E947B0264960895D5
:1003F400FF92F82E26971A930A93DE0114960E9410
:100404005F028D01E0E0EC83ED83EE83EF83DE0198
:1004140018960E945F020E946702FA93EA931A9365
:100424000A93E9EBF0E0FA93EA93FE013896FA9323
:10043400EA93A9DE198108812896FF900895A9916D
:10044400B991EE27FF276D91662311F03196FBCF0A
:100454000895AA27BB27E991F9910590002011F08E
:100464001196FBCFFD0108952A93ED85FE85FA933D
:10047400EA93E989FA8909950895E889F98934970D
:10048400E88BF98B0895ED85FE85FA93EA93E98963
:10049400FA8909950895A889B98914960E94670272
:1004A400EE83FF83FA93EA930895A889B989149691
:1004B4000E946702EA87FB8708950024AF0DB01DF0
:1004C4000895F195E195F0400895ED91FC9111970F
:1004D40008950590F491E02D08957A936A93FA9320
:1004E400EA9308955A934A933A932A931A930A9350
:1004F40008955D814C813B812A8119810881089589
:00000001FF
